:100000000C942A000C9449000C9447000C9447006F
:100010000C9447000C9447000C9447000C94470044
:100020000C9447000C9447000C94C0000C944700BB
:100030000C9447000C9447000C9447000C94470024
:100040000C9447000C9447000C9447000C94470014
:100050000C94470011241FBECFE5D4E0DEBFCDBF16
:1000600010E0A0E6B0E0E6E0FFE102C005900D92EE
:10007000AA36B107D9F713E0AAE6B0E001C01D9295
:10008000AC39B107E1F70E946F080C94810F0C9412
:1000900000001F920F920FB60F9211248F939F931F
:1000A000EF93FF93DF93CF93CDB7DEB77894E9E377
:1000B000F0E08081882F90E080719070009729F4A3
:1000C00080916A00816080936A00E3E3F0E08081C0
:1000D00088232CF080916A00826080936A00E9E3B3
:1000E000F0E08081882F90E080749070009729F470
:1000F00080916A00846080936A00E9E3F0E0808187
:10010000882F90E080729070009729F480916A00A7
:10011000886080936A00E0E3F0E08081882F90E0BF
:1001200080729070009729F480916A0080618093BA
:100130006A00E0E3F0E08081882F90E080719070A9
:10014000009729F480916A00806280936A00E0E35E
:10015000F0E08081882F90E081709070009729F402
:1001600080916A00806480936A00CF91DF91FF9153
:10017000EF919F918F910F900FBE0F901F90189548
:100180001F920F920FB60F921124DF93CF93CDB72A
:10019000DEB77894CF91DF910F900FBE0F901F9034
:1001A0001895DF93CF93CDB7DEB7A7E3B0E0E7E3D1
:1001B000F0E0808180618C93A8E3B0E0E8E3F0E0B8
:1001C000808180618C93A7E3B0E0E7E3F0E0808179
:1001D0008F7B8C93A7E3B0E0E7E3F0E0808180625F
:1001E0008C93A7E3B0E0E7E3F0E0808180688C9334
:1001F000EDE2F0E08FE58083CF91DF910895DF930A
:10020000CF930F92CDB7DEB78983EFE2F0E089811B
:100210008083EEE2F0E080818823DCF70F90CF91BD
:10022000DF910895DF93CF930F92CDB7DEB7898327
:10023000F894A2E3B0E0E2E3F0E080818F7B8C935E
:10024000A5E3B0E0E5E3F0E080818E7F8C93EFE200
:10025000F0E089818083EEE2F0E080818823DCF7A2
:10026000A5E3B0E0E5E3F0E0808181608C93A2E358
:10027000B0E0E2E3F0E0808180648C9378940F90AA
:10028000CF91DF910895DF93CF930F92CDB7DEB773
:100290008983F894A2E3B0E0E2E3F0E08081806437
:1002A0008C93A5E3B0E0E5E3F0E080818E7F8C9352
:1002B000EFE2F0E089818083EEE2F0E08081882344
:1002C000DCF7A5E3B0E0E5E3F0E0808181608C93AA
:1002D000A2E3B0E0E2E3F0E080818F7B8C9378943E
:1002E0000F90CF91DF910895DF93CF9300D0CDB7DA
:1002F000DEB78A838A81883010F087E08A838A811A
:10030000806B898389810E9412010F900F90CF9199
:10031000DF910895DF93CF9300D00F92CDB7DEB772
:100320008B838B81863610F085E68B838B81825E92
:100330008B838B818F7089838B8182958F70806195
:100340008A8389810E9412018A810E9412010F9082
:100350000F900F90CF91DF9108950F931F93DF932C
:10036000CF93CDB7DEB729970FB6F894DEBF0FBE97
:10037000CDBF8E836F83488729871D821C821B8295
:100380001A8219828F818695869586958B838985B9
:100390008695869586958A838E810E948A018B81B7
:1003A0000E9474018FEF8C839A818B81981721F4BE
:1003B000898587708F5F8C838F81877089838E8119
:1003C0008D8352C08D81A82FB0E08B81082F10E063
:1003D0008D81482F50E08B81282F30E0CA01880F93
:1003E000991F880F991F880F991F820F931FFC0177
:1003F000E459FF4F8081682F8C81482F50E089811C
:10040000282F30E088E090E0821B930B9A0102C015
:10041000359527958A95E2F7C9018623282FCD01C6
:10042000880F991F880F991F880F991F800F911FA0
:10043000FC01E459FF4F20838D81482F50E08B81D0
:10044000282F30E0CA01880F991F880F991F880F45
:10045000991F820F931FFC01E459FF4F80810E9476
:1004600043018D818F5F8D839D818885891708F079
:10047000A9CF8E810E948A018A810E947401898598
:10048000877089838E818D834EC08D81682F70E047
:100490008A81A82FB0E08D81482F50E08A81282FD3
:1004A00030E0CA01880F991F880F991F880F991F84
:1004B000820F931FFC01E459FF4F8081482F8981EF
:1004C000882F90E09C012F5F3F4F8FEF90E002C09C
:1004D000880F991F2A95E2F78423282FCB01880FD4
:1004E000991F880F991F880F991F8A0F9B1FFC0166
:1004F000E459FF4F20838D81482F50E08A81282FB7
:1005000030E0CA01880F991F880F991F880F991F23
:10051000820F931FFC01E459FF4F80810E94430129
:100520008D818F5F8D839D818885891708F0ADCF80
:100530008B818F5F8C8329C08E818D831FC08C81BE
:100540000E9474018D810E948A018D81482F50E0A4
:100550008C81282F30E0CA01880F991F880F991FBE
:10056000880F991F820F931FFC01E459FF4F1082DF
:1005700080E00E9443018D818F5F8D839D818885FE
:100580008917E8F68C818F5F8C839C818A8198170C
:1005900098F229960FB6F894DEBF0FBECDBFCF916B
:1005A000DF911F910F910895DF93CF93CDB7DEB701
:1005B00027970FB6F894DEBF0FBECDBF8D836E8335
:1005C0004F831C821B821A8219828E8186958695A2
:1005D00086958A838E81877089838F818F3F99F575
:1005E0008D81682F70E08A81A82FB0E08D81482F1F
:1005F00050E08A81282F30E0CA01880F991F880FA8
:10060000991F880F991F820F931FFC01E459FF4F18
:100610008081482F8981282F30E081E090E002C05E
:10062000880F991F2A95E2F7842B282FCB01880F7A
:10063000991F880F991F880F991F8A0F9B1FFC0114
:10064000E459FF4F20838F818823A1F58D81682F86
:1006500070E08A81A82FB0E08D81482F50E08A8118
:10066000282F30E0CA01880F991F880F991F880F23
:10067000991F820F931FFC01E459FF4F8081482F7F
:100680008981282F30E081E090E002C0880F991F17
:100690002A95E2F780958423282FCB01880F991F94
:1006A000880F991F880F991F8A0F9B1FFC01E4591F
:1006B000FF4F20831B8226C01C821EC08C810E949B
:1006C0008A018B810E9474018C81482F50E08B81BC
:1006D000282F30E0CA01880F991F880F991F880FB3
:1006E000991F820F931FFC01E459FF4F80810E94E4
:1006F00043018C818F5F8C838C818636F8F28B81ED
:100700008F5F8B838B818830B8F227960FB6F89471
:10071000DEBF0FBECDBFCF91DF910895DF93CF93A2
:10072000CDB7DEB7E8970FB6F894DEBF0FBECDBFEA
:10073000A2E3B0E0E2E3F0E080818F778C93A1E365
:10074000B0E0E1E3F0E0808180688C93A5E3B0E065
:10075000E5E3F0E0808181608C93A4E3B0E0E4E322
:10076000F0E0808181608C93A2E3B0E0E2E3F0E00E
:1007700080818F7B8C93A1E3B0E0E1E3F0E08081A6
:1007800080648C93A4E3B0E0E4E3F0E080818260D5
:100790008C93A5E3B0E0E5E3F0E0808182608C9388
:1007A00080E090E0A0EAB0E48DAB9EABAFABB8AF19
:1007B0006DA97EA98FA998AD20E030E04AEF54E4FE
:1007C0000E94C60BDC01CB0189AB9AABABABBCABD7
:1007D00069A97AA98BA99CA920E030E040E85FE3F1
:1007E0000E94200D88232CF481E090E098AB8FA725
:1007F0003FC069A97AA98BA99CA920E03FEF4FE7E8
:1008000057E40E94C00C18164CF56DA97EA98FA95B
:1008100098AD20E030E040E251E40E94C60BDC01DC
:10082000CB01BC01CD010E94F009DC01CB0198ABEA
:100830008FA70FC088EC90E09EA78DA78DA59EA5E1
:100840000197F1F79EA78DA78FA598A9019798AB5F
:100850008FA78FA598A9009769F714C069A97AA9ED
:100860008BA99CA90E94F009DC01CB0198AB8FA752
:100870008FA598A99CA78BA78BA59CA50197F1F79D
:100880009CA78BA7A5E3B0E0E5E3F0E080818D7F36
:100890008C9380E090E0A0EAB0E48FA398A7A9A78A
:1008A000BAA76FA178A589A59AA520E030E04AEF04
:1008B00054E40E94C60BDC01CB018BA39CA3ADA327
:1008C000BEA36BA17CA18DA19EA120E030E040E8F9
:1008D0005FE30E94200D88232CF481E090E09AA32E
:1008E00089A33FC06BA17CA18DA19EA120E03FEF19
:1008F0004FE757E40E94C00C18164CF56FA178A57D
:1009000089A59AA520E030E040E251E40E94C60BA0
:10091000DC01CB01BC01CD010E94F009DC01CB015F
:100920009AA389A30FC088EC90E098A38F8F8F8D36
:1009300098A10197F1F798A38F8F89A19AA10197A8
:100940009AA389A389A19AA1009769F714C06BA102
:100950007CA18DA19EA10E94F009DC01CB019AA38C
:1009600089A389A19AA19E8F8D8F8D8D9E8D0197D0
:10097000F1F79E8F8D8FA5E3B0E0E5E3F0E0808195
:1009800082608C9380E090E0A0E2B1E4898F9A8F3E
:10099000AB8FBC8F698D7A8D8B8D9C8D20E030E084
:1009A0004AEF54E40E94C60BDC01CB018D8B9E8B79
:1009B000AF8BB88F6D897E898F89988D20E030E06C
:1009C00040E85FE30E94200D88232CF481E090E052
:1009D0009C8B8B8B3FC06D897E898F89988D20E0A1
:1009E0003FEF4FE757E40E94C00C18164CF5698D95
:1009F0007A8D8B8D9C8D20E030E040E251E40E94A6
:100A0000C60BDC01CB01BC01CD010E94F009DC0169
:100A1000CB019C8B8B8B0FC088EC90E09A8B898BE1
:100A200089899A890197F1F79A8B898B8B899C899F
:100A300001979C8B8B8B8B899C89009769F714C0DD
:100A40006D897E898F89988D0E94F009DC01CB0128
:100A50009C8B8B8B8B899C89988B8F878F859889B2
:100A60000197F1F7988B8F8780E40E94120180EA4A
:100A70000E94120188EC0E94120184EA0E94120175
:100A800086EA0E94120180E090E0A0EFB2E48B873A
:100A90009C87AD87BE876B857C858D859E8520E094
:100AA00030E04AEF54E40E94C60BDC01CB018F8397
:100AB0009887A987BA876F81788589859A8520E08C
:100AC00030E040E85FE30E94200D88232CF481E0B1
:100AD00090E09E838D833FC06F81788589859A855C
:100AE00020E03FEF4FE757E40E94C00C18164CF58A
:100AF0006B857C858D859E8520E030E040E251E469
:100B00000E94C60BDC01CB01BC01CD010E94F009A3
:100B1000DC01CB019E838D830FC088EC90E09C8329
:100B20008B838B819C810197F1F79C838B838D81D3
:100B30009E8101979E838D838D819E81009769F7A9
:100B400014C06F81788589859A850E94F009DC013F
:100B5000CB019E838D838D819E819A838983898138
:100B60009A810197F1F79A83898382EA0E941201A0
:100B70008FE20E94120187E20E94120181E80E9426
:100B8000120180E10E9412018AEF0E94120180E9A5
:100B90000E9412018FEA0E94120180E060E045E6A7
:100BA0002FE30E94AD01E8960FB6F894DEBF0FBEAA
:100BB000CDBFCF91DF910895DF93CF93CDB7DEB74F
:100BC000A5E4B0E0E5E4F0E080818A668C93E3E49C
:100BD000F0E01082A2E3B0E0E2E3F0E08081806820
:100BE0008C93CF91DF910895DF93CF930F92CDB780
:100BF000DEB78983898187708983A7E2B0E0E7E265
:100C0000F0E08081982F987F8981892B8C93A6E2D0
:100C1000B0E0E6E2F0E0808180648C93E6E2F0E010
:100C20008081882F90E0807490700097B9F7E4E29B
:100C3000F0E0808191810F90CF91DF910895DF9353
:100C4000CF9300D0CDB7DEB7E7E2F0E087EC80834A
:100C5000E6E2F0E087E88083A6E2B0E0E6E2F0E0DA
:100C6000808180648C9387E00E94F4059A83898355
:100C70000F900F90CF91DF910895DF93CF93CDB771
:100C8000DEB72E970FB6F894DEBF0FBECDBFA8E338
:100C9000B0E0E8E3F0E0808188608C93A7E3B0E007
:100CA000E7E3F0E0808188608C93A8E3B0E0E8E3BC
:100CB000F0E0808184608C93A7E3B0E0E7E3F0E0AC
:100CC000808184608C93A8E3B0E0E8E3F0E0808169
:100CD00082608C93A7E3B0E0E7E3F0E0808182607C
:100CE0008C9380E090E0A0E8BFE38B879C87AD8782
:100CF000BE876B857C858D859E8520E030E04AEF40
:100D000054E40E94C60BDC01CB018F839887A9872E
:100D1000BA876F81788589859A8520E030E040E840
:100D20005FE30E94200D88232CF481E090E09E83F5
:100D30008D833FC06F81788589859A8520E03FEF5C
:100D40004FE757E40E94C00C18164CF56B857C8564
:100D50008D859E8520E030E040E251E40E94C60B84
:100D6000DC01CB01BC01CD010E94F009DC01CB010B
:100D70009E838D830FC088EC90E09C838B838B8156
:100D80009C810197F1F79C838B838D819E810197D4
:100D90009E838D838D819E81009769F714C06F813A
:100DA000788589859A850E94F009DC01CB019E83B4
:100DB0008D838D819E819A83898389819A81019710
:100DC000F1F79A8389832E960FB6F894DEBF0FBE93
:100DD000CDBFCF91DF910895DF93CF93CDB7DEB72D
:100DE00061970FB6F894DEBF0FBECDBF8F87688BBB
:100DF000498BF894A8E3B0E0E8E3F0E08081877FD6
:100E00008C9386E00E94FF00A8E3B0E0E8E3F0E006
:100E1000808188608C9380E090E0A0E8BFE38B87BE
:100E20009C87AD87BE876B857C858D859E8520E000
:100E300030E04AEF54E40E94C60BDC01CB018F8303
:100E40009887A987BA876F81788589859A8520E0F8
:100E500030E040E85FE30E94200D88232CF481E01D
:100E600090E09E838D833FC06F81788589859A85C8
:100E700020E03FEF4FE757E40E94C00C18164CF5F6
:100E80006B857C858D859E8520E030E040E251E4D5
:100E90000E94C60BDC01CB01BC01CD010E94F00910
:100EA000DC01CB019E838D830FC088EC90E09C8396
:100EB0008B838B819C810197F1F79C838B838D8140
:100EC0009E8101979E838D838D819E81009769F716
:100ED00014C06F81788589859A850E94F009DC01AC
:100EE000CB019E838D838D819E819A8389838981A5
:100EF0009A810197F1F79A838983A8E3B0E0E8E348
:100F0000F0E08081877F8C9382E00E94FF008F85D4
:100F10000E94FF0088890E94FF0089890E94FF00CB
:100F2000A8E3B0E0E8E3F0E0808188608C937894F7
:100F300061960FB6F894DEBF0FBECDBFCF91DF91A3
:100F40000895DF93CF9300D00F92CDB7DEB78A8399
:100F50006B83A8E3B0E0E8E3F0E08081877F8C93C7
:100F600083E00E94FF008A810E94FF008B810E9423
:100F7000FF008FEF0E94FF00EFE2F0E080818983A5
:100F8000A8E3B0E0E8E3F0E0808188608C93898199
:100F90000F900F900F90CF91DF910895DF93CF9333
:100FA000CDB7DEB7AAE3B0E0EAE3F0E080818F7E60
:100FB0008C93ABE3B0E0EBE3F0E0808180618C9355
:100FC000A4E3B0E0E4E3F0E080818F778C93A5E3C5
:100FD000B0E0E5E3F0E0808180688C93AAE3B0E0C4
:100FE000EAE3F0E080818F7B8C93ABE3B0E0EBE34E
:100FF000F0E0808180648C93AAE3B0E0EAE3F0E063
:1010000080818F7D8C93ABE3B0E0EBE3F0E08081F7
:1010100080628C93A1E3B0E0E1E3F0E080818F7D1A
:101020008C93A2E3B0E0E2E3F0E0808180628C93F5
:10103000A1E3B0E0E1E3F0E080818F7E8C93A2E356
:10104000B0E0E2E3F0E0808180618C93A1E3B0E066
:10105000E1E3F0E080818E7F8C93A2E3B0E0E2E3F5
:10106000F0E0808181608C93CF91DF910895DF93D0
:10107000CF93CDB7DEB7ABE5B0E0EBE5F0E0808134
:1010800080648C93A5E5B0E0E5E5F0E080818260C6
:101090008C93A5E5B0E0E5E5F0E0808181608C937C
:1010A000CF91DF910895DF93CF93CDB7DEB7A8E35B
:1010B000B0E0E8E3F0E0808181608C93A7E3B0E0EA
:1010C000E7E3F0E0808181608C93A8E3B0E0E8E39F
:1010D000F0E080818E7F8C93CF91DF910895DF9334
:1010E000CF93CDB7DEB761970FB6F894DEBF0FBED2
:1010F000CDBF0E9453080E9437080E94CE070E946D
:10110000D1000E948E030E94DC050E941F060E94EF
:101110003D06198A80E06FE00E94A107888B80E07D
:101120006FEF0E94A1078F8778948989882329F41B
:101130008F85688940E00E94D40280916A00882FE0
:1011400090E081709070882359F08889882319F085
:1011500088898150888B80916A008E7F80936A0095
:1011600080916A00882F90E082709070009759F00B
:101170008889803418F488898F5F888B80916A0011
:101180008D7F80936A0080916A00882F90E0847040
:101190009070009759F08F85882319F08F858150C2
:1011A0008F8780916A008B7F80936A0080916A00AC
:1011B000882F90E088709070009759F08F85863660
:1011C00018F48F858F5F8F8780916A00877F809367
:1011D0006A0080916A00882F90E08071907000977B
:1011E00041F089898095898B80916A008F7E8093F8
:1011F0006A0080916A00882F90E08072907000975A
:1012000009F48FC080E060E045E62FE30E94AD0165
:1012100083E38F8780E2888BA8E3B0E0E8E3F0E027
:1012200080818E7F8C9380E090E0A8E4B2E48B878D
:101230009C87AD87BE876B857C858D859E8520E0EC
:1012400030E04AEF54E40E94C60BDC01CB018F83EF
:101250009887A987BA876F81788589859A8520E0E4
:1012600030E040E85FE30E94200D88232CF481E009
:1012700090E09E838D833FC06F81788589859A85B4
:1012800020E03FEF4FE757E40E94C00C18164CF5E2
:101290006B857C858D859E8520E030E040E251E4C1
:1012A0000E94C60BDC01CB01BC01CD010E94F009FC
:1012B000DC01CB019E838D830FC088EC90E09C8382
:1012C0008B838B819C810197F1F79C838B838D812C
:1012D0009E8101979E838D838D819E81009769F702
:1012E00014C06F81788589859A850E94F009DC0198
:1012F000CB019E838D838D819E819A838983898191
:101300009A810197F1F79A838983A8E3B0E0E8E333
:10131000F0E0808181608C9380916A008F7D809362
:101320006A0080916A00882F90E080749070009726
:1013300089F080916B00863030F480916B008F5F74
:1013400080936B0002C010926B0080916A008F7BCB
:1013500080936A0080916B00882391F0E3E4F0E0D1
:1013600080916B00282F30E083E390E0AC01249F54
:10137000C001259F900D349F900D112480830AC0D9
:10138000E3E4F0E01082A2E3B0E0E2E3F0E0808189
:101390008F778C938F8568894FEF0E94D40280E00D
:1013A0006FEF4F850E94EC0680E06FE048890E9455
:1013B000EC0687E00E94F40551E0893B950740F474
:1013C000A8E3B0E0E8E3F0E080818E7F8C93ACCEC0
:1013D000A8E3B0E0E8E3F0E0808181608C93A4CEE4
:1013E000EF92FF920F931F937B018C0120E030E07E
:1013F00040E05FE40E94F00C88238CF0C801B70144
:1014000020E030E040E05FE40E94680B0E94500D55
:101410009B01AC01205030404040504806C0C801FC
:10142000B7010E94500D9B01AC01B901CA011F9187
:101430000F91FF90EF900895A0E0B0E0E2E2FAE0B3
:101440000C944A0FDC012B01FA019C91923008F4B4
:1014500039C1EB018881823008F433C1943069F4DA
:10146000843009F02FC111969C91119789819817AA
:1014700009F428C1A1E6B0E025C1843009F421C1F6
:101480008230A9F4923009F01DC19A01AD0188E0C3
:10149000EA010990AE01E90109929E018150C1F76C
:1014A000E201898111969C918923818308C1923040
:1014B00009F407C112962D903C901397EB018A8195
:1014C0009B811496AD90BD90CD90DC901797EC80E9
:1014D000FD800E811F819101281B390BB90137FF57
:1014E00004C066277727621B730B603271050CF00E
:1014F00061C0121613066CF537014801062E04C0B0
:1015000096948794779467940A94D2F721E030E018
:1015100040E050E004C0220F331F441F551F6A955E
:10152000D2F721503040404050402E213F214023EF
:101530005123211531054105510521F021E030E00D
:1015400040E050E079018A01E628F72808291929A6
:101550003CC0232BD1F1260E371E35014601062E45
:1015600004C096948794779467940A94D2F721E004
:1015700030E040E050E004C0220F331F441F551FED
:101580006A95D2F721503040404050402A213B21FB
:101590004C215D21211531054105510521F021E046
:1015A00030E040E050E059016A01A628B728C82879
:1015B000D9280BC0821593052CF01C01AA24BB244A
:1015C000650103C0EE24FF24870111969C91D2018E
:1015D00011968C91981709F445C0992339F0A80108
:1015E00097012A193B094C095D0906C0A60195011E
:1015F0002E193F09400B510B57FD08C01182338251
:10160000228224833583468357831DC081E08183F2
:101610003382228288279927DC01821B930BA40B3B
:10162000B50B84839583A683B7830DC0220F331F28
:10163000441F551F248335834683578382819381BA
:101640000197938382832481358146815781DA0112
:10165000C9010197A109B1098F5F9F4FAF4FBF43E8
:1016600028F30BC0918333822282EA0CFB1C0C1DF1
:101670001D1DE482F5820683178383E08083248125
:1016800035814681578157FF1AC0C901AA2797FDA6
:10169000A095BA2F81709070A070B0705695479544
:1016A00037952795822B932BA42BB52B8483958379
:1016B000A683B78382819381019693838283DF011E
:1016C00001C0D201CD01CDB7DEB7E2E10C94660FC7
:1016D000A0E2B0E0EEE6FBE00C94560F69837A835B
:1016E0008B839C832D833E834F835887E9E0EE2EC6
:1016F000F12CEC0EFD1ECE010196B7010E94790E71
:101700008E010F5E1F4FCE010596B8010E94790E23
:101710008A8991E089278A8BC701B801AE01475EAB
:101720005F4F0E941C0A0E94A40DA096E6E00C9454
:10173000720FA0E2B0E0EFE9FBE00C94560F698372
:101740007A838B839C832D833E834F835887F9E074
:10175000EF2EF12CEC0EFD1ECE010196B7010E947A
:10176000790E8E010F5E1F4FCE010596B8010E94C3
:10177000790EC701B801AE01475E5F4F0E941C0A97
:101780000E94A40DA096E6E00C94720FA0E2B0E0D7
:10179000ECECFBE00C944A0F69837A838B839C8387
:1017A0002D833E834F835887CE010196BE01675F2C
:1017B0007F4F0E94790ECE010596BE016F5E7F4F6E
:1017C0000E94790E9985923088F089898230C8F01C
:1017D000943019F4823051F404C0843029F49230EA
:1017E00081F481E690E0C6C0923049F420E09A8509
:1017F0008A89981321E02A87CE010996BBC08230DE
:1018000049F420E09A858A89981321E02A8BCE0139
:101810004196B0C02D843E844F8458886D887E8860
:101820008F88988CEE24FF248701AA24BB246501AD
:1018300040E050E060E070E0E0E0F0E0C101817085
:101840009070892BE9F0E60CF71C081D191D9A0110
:10185000AB012A0D3B1D4C1D5D1D80E090E0A0E01A
:10186000B0E0E614F7040805190520F481E090E0E3
:10187000A0E0B0E0BA01A901480F591F6A1F7B1F01
:10188000AA0CBB1CCC1CDD1C97FE08C081E090E0BC
:10189000A0E0B0E0A82AB92ACA2ADB2A3196E032B1
:1018A000F10549F0660C771C881C991C56944794E6
:1018B00037942794C3CFFA85EA892B893C898B8595
:1018C0009C85280F391F2E5F3F4F17C0CA018170BA
:1018D0009070892B61F016950795F794E79480E056
:1018E00090E0A0E0B0E8E82AF92A0A2B1B2B7695B5
:1018F0006795579547952F5F3F4F77FDE7CF0CC012
:10190000440F551F661F771F17FD4160EE0CFF1C2B
:10191000001F111F21503040403090E0590790E0E7
:10192000690790E4790760F32B8F3C8FDB01CA01D4
:101930008F779070A070B07080349105A105B105CB
:1019400061F447FD0AC0E114F1040105110529F015
:10195000405C5F4F6F4F7F4F40781A8EFE1711F03B
:1019600081E08A8F4D8F5E8F6F8F78A383E0898FA0
:10197000CE0149960E94A40DA096E2E10C94660F58
:10198000A8E1B0E0E6ECFCE00C94560F69837A83A2
:101990008B839C832D833E834F83588789E0E82E79
:1019A000F12CEC0EFD1ECE010196B7010E94790EBE
:1019B0008E010F5E1F4FCE010596B8010E94790E71
:1019C0008985823040F08989823028F0C701B801CA
:1019D0000E94F10E01C08FEF6896E6E00C94720F42
:1019E000A8E1B0E0E6EFFCE00C94560F69837A833F
:1019F0008B839C832D833E834F83588789E0E82E19
:101A0000F12CEC0EFD1ECE010196B7010E94790E5D
:101A10008E010F5E1F4FCE010596B8010E94790E10
:101A20008985823040F08989823028F0C701B80169
:101A30000E94F10E01C08FEF6896E6E00C94720FE1
:101A4000A8E1B0E0E6E2FDE00C94560F69837A83EA
:101A50008B839C832D833E834F83588789E0E82EB8
:101A6000F12CEC0EFD1ECE010196B7010E94790EFD
:101A70008E010F5E1F4FCE010596B8010E94790EB0
:101A80008985823040F08989823028F0C701B80109
:101A90000E94F10E01C081E06896E6E00C94720F9E
:101AA000ACE0B0E0E6E5FDE00C945A0F69837A8380
:101AB0008B839C83CE010196BE016B5F7F4F0E949A
:101AC000790E8D81823061F1823050F1843021F4C1
:101AD0008E81882351F12EC02F81388537FD20C09B
:101AE0006E812F3131051CF06623F9F023C08EE1A1
:101AF00090E0821B930B29853A854B855C8504C059
:101B000056954795379527958A95D2F76623B1F074
:101B100050954095309521953F4F4F4F5F4F0EC0E8
:101B200020E030E040E050E009C02FEF3FEF4FEF02
:101B30005FE704C020E030E040E050E8B901CA01AE
:101B40002C96E2E00C94760FDF92EF92FF920F93C7
:101B50001F93FC01E480F58006811781D18080818C
:101B6000823048F480E090E0A0E1B0E0E82AF92A71
:101B70000A2B1B2BA5C0843009F49FC0823021F4AE
:101B8000EE24FF24870105C0E114F10401051105CD
:101B900019F4E0E0F0E096C0628173819FEF623853
:101BA00079070CF05BC022E83FEF261B370B2A3188
:101BB00031052CF020E030E040E050E02AC0B801D0
:101BC000A701022E04C076956795579547950A940C
:101BD000D2F781E090E0A0E0B0E004C0880F991F48
:101BE000AA1FBB1F2A95D2F70197A109B1098E211F
:101BF0009F21A023B1230097A105B10521F081E029
:101C000090E0A0E0B0E09A01AB01282B392B4A2BE1
:101C10005B2BDA01C9018F779070A070B0708034AF
:101C20009105A105B10539F427FF09C0205C3F4F9C
:101C30004F4F5F4F04C0215C3F4F4F4F5F4FE0E07D
:101C4000F0E02030A0E03A07A0E04A07A0E45A07FD
:101C500010F0E1E0F0E079018A0127C060387105F9
:101C600064F5FB01E158FF4FD801C7018F779070F1
:101C7000A070B07080349105A105B10539F4E7FE7C
:101C80000DC080E490E0A0E0B0E004C08FE390E0FD
:101C9000A0E0B0E0E80EF91E0A1F1B1F17FF05C0E9
:101CA00016950795F794E794319687E01695079572
:101CB000F794E7948A95D1F705C0EE24FF248701B5
:101CC000EFEFF0E06E2F679566276795902F9F776F
:101CD000D794DD24D7948E2F8695492F462B582FE5
:101CE0005D29B701CA011F910F91FF90EF90DF901E
:101CF0000895FC01DB01408151812281622F6F77C1
:101D000070E0221F2227221F9381892F880F822BA8
:101D1000282F30E0991F9927991F11969C931197AE
:101D200021153105A9F5411551056105710511F41C
:101D300082E037C082E89FEF13969C938E931297B0
:101D40009A01AB0167E0220F331F441F551F6A95AC
:101D5000D1F783E08C930DC0220F331F441F551F12
:101D600012968D919C911397019713969C938E9345
:101D70001297203080E0380780E0480780E4580759
:101D800058F314962D933D934D935C9317970895B4
:101D90002F3F310579F4411551056105710519F49D
:101DA00084E08C93089564FF03C081E08C9312C09B
:101DB0001C9210C02F57304013963C932E931297CD
:101DC00083E08C9387E0440F551F661F771F8A9529
:101DD000D1F7706414964D935D936D937C93179730
:101DE00008951F93DC01FB019C91923008F447C0D9
:101DF0008081823008F443C0943051F411961C91D4
:101E0000843099F58181682F70E0611B71093FC0B2
:101E1000843021F0923031F48230B9F1818188230D
:101E200089F12DC011961C9111978230F1F08181BA
:101E30001817D9F412962D913C91139782819381B2
:101E40008217930794F028173907BCF014968D91E8
:101E50009D910D90BC91A02D2481358146815781A3
:101E6000281739074A075B0718F4112341F00AC005
:101E700082179307A407B50740F4112319F061E016
:101E800070E005C06FEF7FEF02C060E070E0CB0153
:101E90001F9108952F923F924F925F926F927F927F
:101EA0008F929F92AF92BF92CF92DF92EF92FF926A
:101EB0000F931F93CF93DF93CDB7DEB7CA1BDB0B16
:101EC0000FB6F894DEBF0FBECDBF09942A883988BB
:101ED00048885F846E847D848C849B84AA84B984C2
:101EE000C884DF80EE80FD800C811B81AA81B981CE
:101EF000CE0FD11D0FB6F894DEBF0FBECDBFED01E2
:061F00000895F894FFCFE4
:0A1F060001000000000000000000D0
:00000001FF
